{
  "_format": "hh-sol-artifact-1",
  "contractName": "Campaign",
  "sourceName": "contracts/Campaign.sol",
  "abi": [
    {
      "inputs": [
        {
          "internalType": "string",
          "name": "_name",
          "type": "string"
        },
        {
          "internalType": "string",
          "name": "_description",
          "type": "string"
        },
        {
          "internalType": "string",
          "name": "_pic",
          "type": "string"
        },
        {
          "internalType": "uint256",
          "name": "_goal",
          "type": "uint256"
        },
        {
          "internalType": "uint256",
          "name": "_durationindays",
          "type": "uint256"
        },
        {
          "internalType": "string",
          "name": "_genres",
          "type": "string"
        }
      ],
      "stateMutability": "nonpayable",
      "type": "constructor"
    },
    {
      "inputs": [
        {
          "internalType": "address",
          "name": "",
          "type": "address"
        }
      ],
      "name": "contributions",
      "outputs": [
        {
          "internalType": "uint256",
          "name": "",
          "type": "uint256"
        }
      ],
      "stateMutability": "view",
      "type": "function"
    },
    {
      "inputs": [
        {
          "internalType": "uint256",
          "name": "",
          "type": "uint256"
        }
      ],
      "name": "contributors",
      "outputs": [
        {
          "internalType": "address",
          "name": "",
          "type": "address"
        }
      ],
      "stateMutability": "view",
      "type": "function"
    },
    {
      "inputs": [
        {
          "internalType": "uint256",
          "name": "_amt",
          "type": "uint256"
        },
        {
          "internalType": "string",
          "name": "_ipfsProof",
          "type": "string"
        }
      ],
      "name": "createWithdrawRequest",
      "outputs": [],
      "stateMutability": "nonpayable",
      "type": "function"
    },
    {
      "inputs": [],
      "name": "description",
      "outputs": [
        {
          "internalType": "string",
          "name": "",
          "type": "string"
        }
      ],
      "stateMutability": "view",
      "type": "function"
    },
    {
      "inputs": [],
      "name": "durationindays",
      "outputs": [
        {
          "internalType": "uint256",
          "name": "",
          "type": "uint256"
        }
      ],
      "stateMutability": "view",
      "type": "function"
    },
    {
      "inputs": [],
      "name": "fund",
      "outputs": [],
      "stateMutability": "payable",
      "type": "function"
    },
    {
      "inputs": [],
      "name": "fundRaised",
      "outputs": [
        {
          "internalType": "uint256",
          "name": "",
          "type": "uint256"
        }
      ],
      "stateMutability": "view",
      "type": "function"
    },
    {
      "inputs": [],
      "name": "genres",
      "outputs": [
        {
          "internalType": "string",
          "name": "",
          "type": "string"
        }
      ],
      "stateMutability": "view",
      "type": "function"
    },
    {
      "inputs": [],
      "name": "getBalance",
      "outputs": [
        {
          "internalType": "uint256",
          "name": "",
          "type": "uint256"
        }
      ],
      "stateMutability": "view",
      "type": "function"
    },
    {
      "inputs": [],
      "name": "goal",
      "outputs": [
        {
          "internalType": "uint256",
          "name": "",
          "type": "uint256"
        }
      ],
      "stateMutability": "view",
      "type": "function"
    },
    {
      "inputs": [],
      "name": "name",
      "outputs": [
        {
          "internalType": "string",
          "name": "",
          "type": "string"
        }
      ],
      "stateMutability": "view",
      "type": "function"
    },
    {
      "inputs": [],
      "name": "owner",
      "outputs": [
        {
          "internalType": "address payable",
          "name": "",
          "type": "address"
        }
      ],
      "stateMutability": "view",
      "type": "function"
    },
    {
      "inputs": [],
      "name": "pic",
      "outputs": [
        {
          "internalType": "string",
          "name": "",
          "type": "string"
        }
      ],
      "stateMutability": "view",
      "type": "function"
    },
    {
      "inputs": [],
      "name": "refund",
      "outputs": [],
      "stateMutability": "nonpayable",
      "type": "function"
    },
    {
      "inputs": [],
      "name": "requestIndex",
      "outputs": [
        {
          "internalType": "uint256",
          "name": "",
          "type": "uint256"
        }
      ],
      "stateMutability": "view",
      "type": "function"
    },
    {
      "inputs": [
        {
          "internalType": "uint256",
          "name": "",
          "type": "uint256"
        }
      ],
      "name": "requests",
      "outputs": [
        {
          "internalType": "uint256",
          "name": "date",
          "type": "uint256"
        },
        {
          "internalType": "enum Campaign.VotingStatus",
          "name": "status",
          "type": "uint8"
        },
        {
          "internalType": "uint256",
          "name": "amt",
          "type": "uint256"
        },
        {
          "internalType": "string",
          "name": "ipfsproofadd",
          "type": "string"
        }
      ],
      "stateMutability": "view",
      "type": "function"
    },
    {
      "inputs": [],
      "name": "startdate",
      "outputs": [
        {
          "internalType": "uint256",
          "name": "",
          "type": "uint256"
        }
      ],
      "stateMutability": "view",
      "type": "function"
    },
    {
      "inputs": [],
      "name": "status",
      "outputs": [
        {
          "internalType": "enum Campaign.CampaignStatus",
          "name": "",
          "type": "uint8"
        }
      ],
      "stateMutability": "view",
      "type": "function"
    },
    {
      "inputs": [
        {
          "internalType": "enum Campaign.CampaignStatus",
          "name": "_status",
          "type": "uint8"
        }
      ],
      "name": "statusUpdate",
      "outputs": [],
      "stateMutability": "nonpayable",
      "type": "function"
    },
    {
      "inputs": [
        {
          "internalType": "uint256",
          "name": "_vote",
          "type": "uint256"
        },
        {
          "internalType": "uint256",
          "name": "_i",
          "type": "uint256"
        }
      ],
      "name": "vote",
      "outputs": [],
      "stateMutability": "nonpayable",
      "type": "function"
    }
  ],
  "bytecode": "0x608060405234801561001057600080fd5b5060405161325f38038061325f83398181016040528101906100329190610395565b33600960006101000a81548173ffffffffffffffffffffffffffffffffffffffff021916908373ffffffffffffffffffffffffffffffffffffffff160217905550856001908161008291906106a9565b50846002908161009291906106a9565b5060008451116100d7576040518060400160405280600781526020017f64656661756c7400000000000000000000000000000000000000000000000000815250610163565b600380546100e4906104cc565b80601f0160208091040260200160405190810160405280929190818152602001828054610110906104cc565b801561015d5780601f106101325761010080835404028352916020019161015d565b820191906000526020600020905b81548152906001019060200180831161014057829003601f168201915b50505050505b6003908161017191906106a9565b50826000819055506000600481905550426006819055508160065461019691906107aa565b6005819055506000600d60006101000a81548160ff021916908360038111156101c2576101c16107de565b5b0217905550600060078190555080600890816101de91906106a9565b5050505050505061080d565b6000604051905090565b600080fd5b600080fd5b600080fd5b600080fd5b6000601f19601f8301169050919050565b7f4e487b7100000000000000000000000000000000000000000000000000000000600052604160045260246000fd5b61025182610208565b810181811067ffffffffffffffff821117156102705761026f610219565b5b80604052505050565b60006102836101ea565b905061028f8282610248565b919050565b600067ffffffffffffffff8211156102af576102ae610219565b5b6102b882610208565b9050602081019050919050565b60005b838110156102e35780820151818401526020810190506102c8565b60008484015250505050565b60006103026102fd84610294565b610279565b90508281526020810184848401111561031e5761031d610203565b5b6103298482856102c5565b509392505050565b600082601f830112610346576103456101fe565b5b81516103568482602086016102ef565b91505092915050565b6000819050919050565b6103728161035f565b811461037d57600080fd5b50565b60008151905061038f81610369565b92915050565b60008060008060008060c087890312156103b2576103b16101f4565b5b600087015167ffffffffffffffff8111156103d0576103cf6101f9565b5b6103dc89828a01610331565b965050602087015167ffffffffffffffff8111156103fd576103fc6101f9565b5b61040989828a01610331565b955050604087015167ffffffffffffffff81111561042a576104296101f9565b5b61043689828a01610331565b945050606061044789828a01610380565b935050608061045889828a01610380565b92505060a087015167ffffffffffffffff811115610479576104786101f9565b5b61048589828a01610331565b9150509295509295509295565b600081519050919050565b7f4e487b7100000000000000000000000000000000000000000000000000000000600052602260045260246000fd5b600060028204905060018216806104e457607f821691505b6020821081036104f7576104f661049d565b5b50919050565b60008190508160005260206000209050919050565b60006020601f8301049050919050565b600082821b905092915050565b60006008830261055f7fffffffffffffffffffffffffffffffffffffffffffffffffffffffffffffffff82610522565b6105698683610522565b95508019841693508086168417925050509392505050565b6000819050919050565b60006105a66105a161059c8461035f565b610581565b61035f565b9050919050565b6000819050919050565b6105c08361058b565b6105d46105cc826105ad565b84845461052f565b825550505050565b600090565b6105e96105dc565b6105f48184846105b7565b505050565b5b818110156106185761060d6000826105e1565b6001810190506105fa565b5050565b601f82111561065d5761062e816104fd565b61063784610512565b81016020851015610646578190505b61065a61065285610512565b8301826105f9565b50505b505050565b600082821c905092915050565b600061068060001984600802610662565b1980831691505092915050565b6000610699838361066f565b9150826002028217905092915050565b6106b282610492565b67ffffffffffffffff8111156106cb576106ca610219565b5b6106d582546104cc565b6106e082828561061c565b600060209050601f8311600181146107135760008415610701578287015190505b61070b858261068d565b865550610773565b601f198416610721866104fd565b60005b8281101561074957848901518255600182019150602085019450602081019050610724565b868310156107665784890151610762601f89168261066f565b8355505b6001600288020188555050505b505050505050565b7f4e487b7100000000000000000000000000000000000000000000000000000000600052601160045260246000fd5b60006107b58261035f565b91506107c08361035f565b92508282019050808211156107d8576107d761077b565b5b92915050565b7f4e487b7100000000000000000000000000000000000000000000000000000000600052602160045260246000fd5b612a438061081c6000396000f3fe60806040526004361061011f5760003560e01c80637284e416116100a0578063c71c0b4011610064578063c71c0b40146103a9578063cde9f2ea146103d4578063d9d29726146103ff578063dba88bc214610428578063f0e8885c146104535761011f565b80637284e416146102e057806381d12c581461030b5780638da5cb5b1461034b578063b384abef14610376578063b60d42881461039f5761011f565b806340193883116100e7578063401938831461020b578063420714bd1461023657806342e94c9014610261578063590e1ae31461029e5780636cefb270146102b55761011f565b806306fdde031461012457806312065fe01461014f57806312205b2f1461017a578063200d2ed2146101a35780633cb5d100146101ce575b600080fd5b34801561013057600080fd5b5061013961047e565b6040516101469190611b3d565b60405180910390f35b34801561015b57600080fd5b5061016461050c565b6040516101719190611b78565b60405180910390f35b34801561018657600080fd5b506101a1600480360381019061019c9190611d08565b610514565b005b3480156101af57600080fd5b506101b8610832565b6040516101c59190611ddb565b60405180910390f35b3480156101da57600080fd5b506101f560048036038101906101f09190611df6565b610845565b6040516102029190611e64565b60405180910390f35b34801561021757600080fd5b50610220610884565b60405161022d9190611b78565b60405180910390f35b34801561024257600080fd5b5061024b61088a565b6040516102589190611b78565b60405180910390f35b34801561026d57600080fd5b5061028860048036038101906102839190611eab565b610890565b6040516102959190611b78565b60405180910390f35b3480156102aa57600080fd5b506102b36108a8565b005b3480156102c157600080fd5b506102ca610a80565b6040516102d79190611b3d565b60405180910390f35b3480156102ec57600080fd5b506102f5610b0e565b6040516103029190611b3d565b60405180910390f35b34801561031757600080fd5b50610332600480360381019061032d9190611df6565b610b9c565b6040516103429493929190611f20565b60405180910390f35b34801561035757600080fd5b50610360610c71565b60405161036d9190611f8d565b60405180910390f35b34801561038257600080fd5b5061039d60048036038101906103989190611fa8565b610c97565b005b6103a7610fe3565b005b3480156103b557600080fd5b506103be611227565b6040516103cb9190611b78565b60405180910390f35b3480156103e057600080fd5b506103e961122d565b6040516103f69190611b78565b60405180910390f35b34801561040b57600080fd5b506104266004803603810190610421919061200d565b611233565b005b34801561043457600080fd5b5061043d6112e6565b60405161044a9190611b3d565b60405180910390f35b34801561045f57600080fd5b50610468611374565b6040516104759190611b78565b60405180910390f35b6001805461048b90612069565b80601f01602080910402602001604051908101604052809291908181526020018280546104b790612069565b80156105045780601f106104d957610100808354040283529160200191610504565b820191906000526020600020905b8154815290600101906020018083116104e757829003601f168201915b505050505081565b600047905090565b600960009054906101000a900473ffffffffffffffffffffffffffffffffffffffff1673ffffffffffffffffffffffffffffffffffffffff163373ffffffffffffffffffffffffffffffffffffffff16146105a4576040517f08c379a000000000000000000000000000000000000000000000000000000000815260040161059b906120e6565b60405180910390fd5b81478111156105e8576040517f08c379a00000000000000000000000000000000000000000000000000000000081526004016105df90612152565b60405180910390fd5b60005b60075481101561069a5760028081111561060857610607611d64565b5b600c828154811061061c5761061b612172565b5b906000526020600020906005020160010160009054906101000a900460ff16600281111561064d5761064c611d64565b5b0361068d576040517f08c379a000000000000000000000000000000000000000000000000000000000815260040161068490612213565b60405180910390fd5b80806001019150506105eb565b506000600c6001816001815401808255809150500390600052602060002090600502019050600760008154809291906106d290612262565b91905055506107156040518060400160405280600281526020017f686800000000000000000000000000000000000000000000000000000000000081525061137a565b42816000018190555060028160010160006101000a81548160ff0219169083600281111561074657610745611d64565b5b0217905550838160030181905550828160040190816107659190612456565b5060005b600a8054905081101561082b576002826002016000600a848154811061079257610791612172565b5b9060005260206000200160009054906101000a900473ffffffffffffffffffffffffffffffffffffffff1673ffffffffffffffffffffffffffffffffffffffff1673ffffffffffffffffffffffffffffffffffffffff16815260200190815260200160002060006101000a81548160ff0219169083600281111561081957610818611d64565b5b02179055508080600101915050610769565b5050505050565b600d60009054906101000a900460ff1681565b600a818154811061085557600080fd5b906000526020600020016000915054906101000a900473ffffffffffffffffffffffffffffffffffffffff1681565b60005481565b60075481565b600b6020528060005260406000206000915090505481565b60005b600a80549050811015610a6f57600060045447600b6000600a86815481106108d6576108d5612172565b5b9060005260206000200160009054906101000a900473ffffffffffffffffffffffffffffffffffffffff1673ffffffffffffffffffffffffffffffffffffffff1673ffffffffffffffffffffffffffffffffffffffff168152602001908152602001600020546109469190612528565b6109509190612599565b905061095b81611413565b600a828154811061096f5761096e612172565b5b9060005260206000200160009054906101000a900473ffffffffffffffffffffffffffffffffffffffff1673ffffffffffffffffffffffffffffffffffffffff166108fc829081150290604051600060405180830381858888f193505050501580156109df573d6000803e3d6000fd5b50600b6000600a84815481106109f8576109f7612172565b5b9060005260206000200160009054906101000a900473ffffffffffffffffffffffffffffffffffffffff1673ffffffffffffffffffffffffffffffffffffffff1673ffffffffffffffffffffffffffffffffffffffff168152602001908152602001600020600090555080806001019150506108ab565b50600a6000610a7e9190611a65565b565b60088054610a8d90612069565b80601f0160208091040260200160405190810160405280929190818152602001828054610ab990612069565b8015610b065780601f10610adb57610100808354040283529160200191610b06565b820191906000526020600020905b815481529060010190602001808311610ae957829003601f168201915b505050505081565b60028054610b1b90612069565b80601f0160208091040260200160405190810160405280929190818152602001828054610b4790612069565b8015610b945780601f10610b6957610100808354040283529160200191610b94565b820191906000526020600020905b815481529060010190602001808311610b7757829003601f168201915b505050505081565b600c8181548110610bac57600080fd5b90600052602060002090600502016000915090508060000154908060010160009054906101000a900460ff1690806003015490806004018054610bee90612069565b80601f0160208091040260200160405190810160405280929190818152602001828054610c1a90612069565b8015610c675780601f10610c3c57610100808354040283529160200191610c67565b820191906000526020600020905b815481529060010190602001808311610c4a57829003601f168201915b5050505050905084565b600960009054906101000a900473ffffffffffffffffffffffffffffffffffffffff1681565b600280811115610caa57610ca9611d64565b5b600c8281548110610cbe57610cbd612172565b5b906000526020600020906005020160010160009054906101000a900460ff166002811115610cef57610cee611d64565b5b14610d2f576040517f08c379a0000000000000000000000000000000000000000000000000000000008152600401610d2690612616565b60405180910390fd5b600280811115610d4257610d41611d64565b5b600c8281548110610d5657610d55612172565b5b906000526020600020906005020160020160003373ffffffffffffffffffffffffffffffffffffffff1673ffffffffffffffffffffffffffffffffffffffff16815260200190815260200160002060009054906101000a900460ff166002811115610dc457610dc3611d64565b5b14610e04576040517f08c379a0000000000000000000000000000000000000000000000000000000008152600401610dfb90612682565b60405180910390fd5b6000600b60003373ffffffffffffffffffffffffffffffffffffffff1673ffffffffffffffffffffffffffffffffffffffff1681526020019081526020016000205411610e86576040517f08c379a0000000000000000000000000000000000000000000000000000000008152600401610e7d906126ee565b60405180910390fd5b816002811115610e9957610e98611d64565b5b600c8281548110610ead57610eac612172565b5b906000526020600020906005020160020160003373ffffffffffffffffffffffffffffffffffffffff1673ffffffffffffffffffffffffffffffffffffffff16815260200190815260200160002060006101000a81548160ff02191690836002811115610f1d57610f1c611d64565b5b0217905550610f2b816114ac565b600c8281548110610f3f57610f3e612172565b5b906000526020600020906005020160010160006101000a81548160ff02191690836002811115610f7257610f71611d64565b5b021790555060006002811115610f8b57610f8a611d64565b5b600c8281548110610f9f57610f9e612172565b5b906000526020600020906005020160010160009054906101000a900460ff166002811115610fd057610fcf611d64565b5b03610fdf57610fde816116c5565b5b5050565b60006003811115610ff757610ff6611d64565b5b600d60009054906101000a900460ff16600381111561101957611018611d64565b5b14611059576040517f08c379a000000000000000000000000000000000000000000000000000000000815260040161105090612780565b60405180910390fd5b60045460005461106991906127a0565b34111561108460045460005461107f91906127a0565b611756565b6040516020016110949190612882565b604051602081830303815290604052906110e4576040517f08c379a00000000000000000000000000000000000000000000000000000000081526004016110db9190611b3d565b60405180910390fd5b5060003403611128576040517f08c379a000000000000000000000000000000000000000000000000000000000815260040161111f906128f0565b60405180910390fd5b6000151561113533611824565b1515036111a057600a339080600181540180825580915050600190039060005260206000200160009091909190916101000a81548173ffffffffffffffffffffffffffffffffffffffff021916908373ffffffffffffffffffffffffffffffffffffffff1602179055505b34600b60003373ffffffffffffffffffffffffffffffffffffffff1673ffffffffffffffffffffffffffffffffffffffff16815260200190815260200160002060008282546111ef9190612910565b9250508190555034600460008282546112089190612910565b9250508190555060005460045403611225576112246001611233565b5b565b60045481565b60065481565b60038081111561124657611245611d64565b5b81600381111561125957611258611d64565b5b036112b957600960009054906101000a900473ffffffffffffffffffffffffffffffffffffffff1673ffffffffffffffffffffffffffffffffffffffff163373ffffffffffffffffffffffffffffffffffffffff16146112b857600080fd5b5b80600d60006101000a81548160ff021916908360038111156112de576112dd611d64565b5b021790555050565b600380546112f390612069565b80601f016020809104026020016040519081016040528092919081815260200182805461131f90612069565b801561136c5780601f106113415761010080835404028352916020019161136c565b820191906000526020600020905b81548152906001019060200180831161134f57829003601f168201915b505050505081565b60055481565b6114108160405160240161138e9190611b3d565b6040516020818303038152906040527f41304fac000000000000000000000000000000000000000000000000000000007bffffffffffffffffffffffffffffffffffffffffffffffffffffffff19166020820180517bffffffffffffffffffffffffffffffffffffffffffffffffffffffff83818316178352505050506118cc565b50565b6114a9816040516024016114279190611b78565b6040516020818303038152906040527ff82c50f1000000000000000000000000000000000000000000000000000000007bffffffffffffffffffffffffffffffffffffffffffffffffffffffff19166020820180517bffffffffffffffffffffffffffffffffffffffffffffffffffffffff83818316178352505050506118cc565b50565b600080600090506000805b600a805490508110156116ad576002808111156114d7576114d6611d64565b5b600c86815481106114eb576114ea612172565b5b90600052602060002090600502016002016000600a848154811061151257611511612172565b5b9060005260206000200160009054906101000a900473ffffffffffffffffffffffffffffffffffffffff1673ffffffffffffffffffffffffffffffffffffffff1673ffffffffffffffffffffffffffffffffffffffff16815260200190815260200160002060009054906101000a900460ff16600281111561159757611596611d64565b5b036115a557600292506116ad565b600060028111156115b9576115b8611d64565b5b600c86815481106115cd576115cc612172565b5b90600052602060002090600502016002016000600a84815481106115f4576115f3612172565b5b9060005260206000200160009054906101000a900473ffffffffffffffffffffffffffffffffffffffff1673ffffffffffffffffffffffffffffffffffffffff1673ffffffffffffffffffffffffffffffffffffffff16815260200190815260200160002060009054906101000a900460ff16600281111561167957611678611d64565b5b036116915781806116899061294e565b9250506116a0565b818061169c90612996565b9250505b80806001019150506114b7565b50600081136116bb57600191505b8192505050919050565b600960009054906101000a900473ffffffffffffffffffffffffffffffffffffffff1673ffffffffffffffffffffffffffffffffffffffff166108fc600c838154811061171557611714612172565b5b9060005260206000209060050201600301549081150290604051600060405180830381858888f19350505050158015611752573d6000803e3d6000fd5b5050565b606060006001611765846118e6565b01905060008167ffffffffffffffff81111561178457611783611bdd565b5b6040519080825280601f01601f1916602001820160405280156117b65781602001600182028036833780820191505090505b509050600082602001820190505b600115611819578080600190039150507f3031323334353637383961626364656600000000000000000000000000000000600a86061a8153600a858161180d5761180c61256a565b5b049450600085036117c4575b819350505050919050565b6000806000905060005b600a805490508110156118c2578373ffffffffffffffffffffffffffffffffffffffff16600a828154811061186657611865612172565b5b9060005260206000200160009054906101000a900473ffffffffffffffffffffffffffffffffffffffff1673ffffffffffffffffffffffffffffffffffffffff16036118b557600191506118c2565b808060010191505061182e565b5080915050919050565b6118e3816118db611a39611a5a565b63ffffffff16565b50565b600080600090507a184f03e93ff9f4daa797ed6e38ed64bf6a1f0100000000000000008310611944577a184f03e93ff9f4daa797ed6e38ed64bf6a1f010000000000000000838161193a5761193961256a565b5b0492506040810190505b6d04ee2d6d415b85acef81000000008310611981576d04ee2d6d415b85acef810000000083816119775761197661256a565b5b0492506020810190505b662386f26fc1000083106119b057662386f26fc1000083816119a6576119a561256a565b5b0492506010810190505b6305f5e10083106119d9576305f5e10083816119cf576119ce61256a565b5b0492506008810190505b61271083106119fe5761271083816119f4576119f361256a565b5b0492506004810190505b60648310611a215760648381611a1757611a1661256a565b5b0492506002810190505b600a8310611a30576001810190505b80915050919050565b60006a636f6e736f6c652e6c6f679050600080835160208501845afa505050565b611a86819050919050565b5080546000825590600052602060002090810190611a839190611a90565b50565b611a8e6129de565b565b5b80821115611aa9576000816000905550600101611a91565b5090565b600081519050919050565b600082825260208201905092915050565b60005b83811015611ae7578082015181840152602081019050611acc565b60008484015250505050565b6000601f19601f8301169050919050565b6000611b0f82611aad565b611b198185611ab8565b9350611b29818560208601611ac9565b611b3281611af3565b840191505092915050565b60006020820190508181036000830152611b578184611b04565b905092915050565b6000819050919050565b611b7281611b5f565b82525050565b6000602082019050611b8d6000830184611b69565b92915050565b6000604051905090565b600080fd5b600080fd5b611bb081611b5f565b8114611bbb57600080fd5b50565b600081359050611bcd81611ba7565b92915050565b600080fd5b600080fd5b7f4e487b7100000000000000000000000000000000000000000000000000000000600052604160045260246000fd5b611c1582611af3565b810181811067ffffffffffffffff82111715611c3457611c33611bdd565b5b80604052505050565b6000611c47611b93565b9050611c538282611c0c565b919050565b600067ffffffffffffffff821115611c7357611c72611bdd565b5b611c7c82611af3565b9050602081019050919050565b82818337600083830152505050565b6000611cab611ca684611c58565b611c3d565b905082815260208101848484011115611cc757611cc6611bd8565b5b611cd2848285611c89565b509392505050565b600082601f830112611cef57611cee611bd3565b5b8135611cff848260208601611c98565b91505092915050565b60008060408385031215611d1f57611d1e611b9d565b5b6000611d2d85828601611bbe565b925050602083013567ffffffffffffffff811115611d4e57611d4d611ba2565b5b611d5a85828601611cda565b9150509250929050565b7f4e487b7100000000000000000000000000000000000000000000000000000000600052602160045260246000fd5b60048110611da457611da3611d64565b5b50565b6000819050611db582611d93565b919050565b6000611dc582611da7565b9050919050565b611dd581611dba565b82525050565b6000602082019050611df06000830184611dcc565b92915050565b600060208284031215611e0c57611e0b611b9d565b5b6000611e1a84828501611bbe565b91505092915050565b600073ffffffffffffffffffffffffffffffffffffffff82169050919050565b6000611e4e82611e23565b9050919050565b611e5e81611e43565b82525050565b6000602082019050611e796000830184611e55565b92915050565b611e8881611e43565b8114611e9357600080fd5b50565b600081359050611ea581611e7f565b92915050565b600060208284031215611ec157611ec0611b9d565b5b6000611ecf84828501611e96565b91505092915050565b60038110611ee957611ee8611d64565b5b50565b6000819050611efa82611ed8565b919050565b6000611f0a82611eec565b9050919050565b611f1a81611eff565b82525050565b6000608082019050611f356000830187611b69565b611f426020830186611f11565b611f4f6040830185611b69565b8181036060830152611f618184611b04565b905095945050505050565b6000611f7782611e23565b9050919050565b611f8781611f6c565b82525050565b6000602082019050611fa26000830184611f7e565b92915050565b60008060408385031215611fbf57611fbe611b9d565b5b6000611fcd85828601611bbe565b9250506020611fde85828601611bbe565b9150509250929050565b60048110611ff557600080fd5b50565b60008135905061200781611fe8565b92915050565b60006020828403121561202357612022611b9d565b5b600061203184828501611ff8565b91505092915050565b7f4e487b7100000000000000000000000000000000000000000000000000000000600052602260045260246000fd5b6000600282049050600182168061208157607f821691505b6020821081036120945761209361203a565b5b50919050565b7f4f6e6c7920617661696c61626c6520666f7220746865206f776e657200000000600082015250565b60006120d0601c83611ab8565b91506120db8261209a565b602082019050919050565b600060208201905081810360008301526120ff816120c3565b9050919050565b7f4e6f7420656e6f7567682066756e647320617661696c61626c65000000000000600082015250565b600061213c601a83611ab8565b915061214782612106565b602082019050919050565b6000602082019050818103600083015261216b8161212f565b9050919050565b7f4e487b7100000000000000000000000000000000000000000000000000000000600052603260045260246000fd5b7f5468657265206172652070656e64696e67207769746864726177616c2072657160008201527f7565737473000000000000000000000000000000000000000000000000000000602082015250565b60006121fd602583611ab8565b9150612208826121a1565b604082019050919050565b6000602082019050818103600083015261222c816121f0565b9050919050565b7f4e487b7100000000000000000000000000000000000000000000000000000000600052601160045260246000fd5b600061226d82611b5f565b91507fffffffffffffffffffffffffffffffffffffffffffffffffffffffffffffffff820361229f5761229e612233565b5b600182019050919050565b60008190508160005260206000209050919050565b60006020601f8301049050919050565b600082821b905092915050565b60006008830261230c7fffffffffffffffffffffffffffffffffffffffffffffffffffffffffffffffff826122cf565b61231686836122cf565b95508019841693508086168417925050509392505050565b6000819050919050565b600061235361234e61234984611b5f565b61232e565b611b5f565b9050919050565b6000819050919050565b61236d83612338565b6123816123798261235a565b8484546122dc565b825550505050565b600090565b612396612389565b6123a1818484612364565b505050565b5b818110156123c5576123ba60008261238e565b6001810190506123a7565b5050565b601f82111561240a576123db816122aa565b6123e4846122bf565b810160208510156123f3578190505b6124076123ff856122bf565b8301826123a6565b50505b505050565b600082821c905092915050565b600061242d6000198460080261240f565b1980831691505092915050565b6000612446838361241c565b9150826002028217905092915050565b61245f82611aad565b67ffffffffffffffff81111561247857612477611bdd565b5b6124828254612069565b61248d8282856123c9565b600060209050601f8311600181146124c057600084156124ae578287015190505b6124b8858261243a565b865550612520565b601f1984166124ce866122aa565b60005b828110156124f6578489015182556001820191506020850194506020810190506124d1565b86831015612513578489015161250f601f89168261241c565b8355505b6001600288020188555050505b505050505050565b600061253382611b5f565b915061253e83611b5f565b925082820261254c81611b5f565b9150828204841483151761256357612562612233565b5b5092915050565b7f4e487b7100000000000000000000000000000000000000000000000000000000600052601260045260246000fd5b60006125a482611b5f565b91506125af83611b5f565b9250826125bf576125be61256a565b5b828204905092915050565b7f566f74657320686173206265656e20636c6f7365640000000000000000000000600082015250565b6000612600601583611ab8565b915061260b826125ca565b602082019050919050565b6000602082019050818103600083015261262f816125f3565b9050919050565b7f416c726561647920766f74656400000000000000000000000000000000000000600082015250565b600061266c600d83611ab8565b915061267782612636565b602082019050919050565b6000602082019050818103600083015261269b8161265f565b9050919050565b7f4f6e6c7920636f6e7472696275746f72732063616e20766f7465000000000000600082015250565b60006126d8601a83611ab8565b91506126e3826126a2565b602082019050919050565b60006020820190508181036000830152612707816126cb565b9050919050565b7f546869732063616d706169676e2063616e27742061636365707420646f6e617460008201527f696f6e7300000000000000000000000000000000000000000000000000000000602082015250565b600061276a602483611ab8565b91506127758261270e565b604082019050919050565b600060208201905081810360008301526127998161275d565b9050919050565b60006127ab82611b5f565b91506127b683611b5f565b92508282039050818111156127ce576127cd612233565b5b92915050565b600081905092915050565b7f446f6e6174696f6e732073686f756c64206265206c657373207468616e206f7260008201527f20657175616c20746f2000000000000000000000000000000000000000000000602082015250565b600061283b602a836127d4565b9150612846826127df565b602a82019050919050565b600061285c82611aad565b61286681856127d4565b9350612876818560208601611ac9565b80840191505092915050565b600061288d8261282e565b91506128998284612851565b915081905092915050565b7f496e76616c696420646f6e6174696f6e00000000000000000000000000000000600082015250565b60006128da601083611ab8565b91506128e5826128a4565b602082019050919050565b60006020820190508181036000830152612909816128cd565b9050919050565b600061291b82611b5f565b915061292683611b5f565b925082820190508082111561293e5761293d612233565b5b92915050565b6000819050919050565b600061295982612944565b91507f7fffffffffffffffffffffffffffffffffffffffffffffffffffffffffffffff820361298b5761298a612233565b5b600182019050919050565b60006129a182612944565b91507f800000000000000000000000000000000000000000000000000000000000000082036129d3576129d2612233565b5b600182039050919050565b7f4e487b7100000000000000000000000000000000000000000000000000000000600052605160045260246000fdfea26469706673582212201cf4fec13c10155827adc20e438f1612550d9f0e20853396452e523343e5f8dd64736f6c634300081c0033",
  "linkReferences": {},
  "deployedLinkReferences": {}
}